{
  "_format": "hh-sol-artifact-1",
  "contractName": "LSP11BasicSocialRecovery",
  "sourceName": "contracts/LSP11BasicSocialRecovery/LSP11BasicSocialRecovery.sol",
  "abi": [
    {
      "inputs": [
        {
          "internalType": "address",
          "name": "_account",
          "type": "address"
        }
      ],
      "stateMutability": "nonpayable",
      "type": "constructor"
    },
    {
      "anonymous": false,
      "inputs": [
        {
          "indexed": true,
          "internalType": "address",
          "name": "previousOwner",
          "type": "address"
        },
        {
          "indexed": true,
          "internalType": "address",
          "name": "newOwner",
          "type": "address"
        }
      ],
      "name": "OwnershipTransferred",
      "type": "event"
    },
    {
      "inputs": [],
      "name": "account",
      "outputs": [
        {
          "internalType": "address",
          "name": "",
          "type": "address"
        }
      ],
      "stateMutability": "view",
      "type": "function"
    },
    {
      "inputs": [
        {
          "internalType": "address",
          "name": "newGuardian",
          "type": "address"
        }
      ],
      "name": "addGuardian",
      "outputs": [],
      "stateMutability": "nonpayable",
      "type": "function"
    },
    {
      "inputs": [
        {
          "internalType": "address",
          "name": "newGuardian",
          "type": "address"
        },
        {
          "internalType": "bytes32",
          "name": "thirdPartyName",
          "type": "bytes32"
        }
      ],
      "name": "addThirdPartyGuardian",
      "outputs": [],
      "stateMutability": "nonpayable",
      "type": "function"
    },
    {
      "inputs": [
        {
          "internalType": "bytes32",
          "name": "recoverProcessId",
          "type": "bytes32"
        },
        {
          "internalType": "address",
          "name": "guardian",
          "type": "address"
        }
      ],
      "name": "getGuardianVote",
      "outputs": [
        {
          "internalType": "address",
          "name": "",
          "type": "address"
        }
      ],
      "stateMutability": "view",
      "type": "function"
    },
    {
      "inputs": [],
      "name": "getGuardians",
      "outputs": [
        {
          "internalType": "address[]",
          "name": "",
          "type": "address[]"
        }
      ],
      "stateMutability": "view",
      "type": "function"
    },
    {
      "inputs": [],
      "name": "getGuardiansThreshold",
      "outputs": [
        {
          "internalType": "uint256",
          "name": "",
          "type": "uint256"
        }
      ],
      "stateMutability": "view",
      "type": "function"
    },
    {
      "inputs": [],
      "name": "getOwner",
      "outputs": [
        {
          "internalType": "address",
          "name": "owner",
          "type": "address"
        }
      ],
      "stateMutability": "view",
      "type": "function"
    },
    {
      "inputs": [],
      "name": "getRecoverProcessesIds",
      "outputs": [
        {
          "internalType": "bytes32[]",
          "name": "",
          "type": "bytes32[]"
        }
      ],
      "stateMutability": "view",
      "type": "function"
    },
    {
      "inputs": [
        {
          "internalType": "address",
          "name": "guardian",
          "type": "address"
        }
      ],
      "name": "getThridPartyName",
      "outputs": [
        {
          "internalType": "bytes32",
          "name": "",
          "type": "bytes32"
        }
      ],
      "stateMutability": "view",
      "type": "function"
    },
    {
      "inputs": [
        {
          "internalType": "address",
          "name": "_address",
          "type": "address"
        }
      ],
      "name": "isGuardian",
      "outputs": [
        {
          "internalType": "bool",
          "name": "",
          "type": "bool"
        }
      ],
      "stateMutability": "view",
      "type": "function"
    },
    {
      "inputs": [],
      "name": "owner",
      "outputs": [
        {
          "internalType": "address",
          "name": "",
          "type": "address"
        }
      ],
      "stateMutability": "view",
      "type": "function"
    },
    {
      "inputs": [
        {
          "internalType": "bytes32",
          "name": "recoverProcessId",
          "type": "bytes32"
        },
        {
          "internalType": "string",
          "name": "plainSecret",
          "type": "string"
        },
        {
          "internalType": "bytes32",
          "name": "newHash",
          "type": "bytes32"
        }
      ],
      "name": "recoverOwnership",
      "outputs": [],
      "stateMutability": "nonpayable",
      "type": "function"
    },
    {
      "inputs": [
        {
          "internalType": "address",
          "name": "currentGuardian",
          "type": "address"
        }
      ],
      "name": "removeGuardian",
      "outputs": [],
      "stateMutability": "nonpayable",
      "type": "function"
    },
    {
      "inputs": [],
      "name": "renounceOwnership",
      "outputs": [],
      "stateMutability": "nonpayable",
      "type": "function"
    },
    {
      "inputs": [
        {
          "internalType": "bytes32",
          "name": "newHash",
          "type": "bytes32"
        }
      ],
      "name": "setSecret",
      "outputs": [],
      "stateMutability": "nonpayable",
      "type": "function"
    },
    {
      "inputs": [
        {
          "internalType": "uint256",
          "name": "newThreshold",
          "type": "uint256"
        }
      ],
      "name": "setThreshold",
      "outputs": [],
      "stateMutability": "nonpayable",
      "type": "function"
    },
    {
      "inputs": [
        {
          "internalType": "bytes4",
          "name": "_interfaceId",
          "type": "bytes4"
        }
      ],
      "name": "supportsInterface",
      "outputs": [
        {
          "internalType": "bool",
          "name": "",
          "type": "bool"
        }
      ],
      "stateMutability": "view",
      "type": "function"
    },
    {
      "inputs": [
        {
          "internalType": "address",
          "name": "newOwner",
          "type": "address"
        }
      ],
      "name": "transferOwnership",
      "outputs": [],
      "stateMutability": "nonpayable",
      "type": "function"
    },
    {
      "inputs": [
        {
          "internalType": "bytes32",
          "name": "recoverProcessId",
          "type": "bytes32"
        },
        {
          "internalType": "address",
          "name": "newOwner",
          "type": "address"
        }
      ],
      "name": "voteToRecover",
      "outputs": [],
      "stateMutability": "nonpayable",
      "type": "function"
    },
    {
      "inputs": [
        {
          "internalType": "bytes32",
          "name": "recoverProcessId",
          "type": "bytes32"
        },
        {
          "internalType": "address",
          "name": "guardianSigner",
          "type": "address"
        },
        {
          "components": [
            {
              "internalType": "bytes32",
              "name": "r",
              "type": "bytes32"
            },
            {
              "internalType": "bytes32",
              "name": "s",
              "type": "bytes32"
            },
            {
              "internalType": "uint8",
              "name": "v",
              "type": "uint8"
            }
          ],
          "internalType": "struct LSP11BasicSocialRecoveryCore.Coupon",
          "name": "coupon",
          "type": "tuple"
        }
      ],
      "name": "voteToRecoverThirdParty",
      "outputs": [],
      "stateMutability": "nonpayable",
      "type": "function"
    }
  ],
  "bytecode": "0x60806040523480156200001157600080fd5b5060405162001d9638038062001d968339810160408190526200003491620000d4565b600180546001600160a01b0319166001600160a01b03831617905562000066816200006d602090811b62000c1c17901c565b5062000106565b6000546001600160a01b03828116911614620000d157600080546001600160a01b038381166001600160a01b0319831681178455604051919092169283917f8be0079c531659141344cd1fd0a4f28419497f9722a3daafe3b4186f6b6457e09190a3505b50565b600060208284031215620000e757600080fd5b81516001600160a01b0381168114620000ff57600080fd5b9392505050565b611c8080620001166000396000f3fe608060405234801561001057600080fd5b506004361061016c5760003560e01c8063624d7ffb116100cd5780638da5cb5b11610081578063a526d83b11610066578063a526d83b146102ed578063d4adf36214610300578063f2fde38b1461034357600080fd5b80638da5cb5b146102c9578063960bfe04146102da57600080fd5b8063715018a6116100b2578063715018a61461029d5780637a118daf146102a5578063893d20e8146102b857600080fd5b8063624d7ffb14610277578063714041561461028a57600080fd5b80632713fc271161012457806335a9c82f1161010957806335a9c82f146102245780633f6e9749146102375780635dab24201461024c57600080fd5b80632713fc27146101e85780632954a1f8146101fb57600080fd5b80630c68ba21116101555780630c68ba21146101ae57806311d74a2a146101c1578063187c5348146101d657600080fd5b806301ffc9a7146101715780630665f04b14610199575b600080fd5b61018461017f3660046118fe565b610356565b60405190151581526020015b60405180910390f35b6101a16103a6565b6040516101909190611a19565b6101846101bc366004611701565b6103b7565b6101d46101cf3660046117d2565b6103c4565b005b6002545b604051908152602001610190565b6101d46101f636600461173b565b610591565b6101da610209366004611701565b6001600160a01b031660009081526009602052604090205490565b6101d4610232366004611789565b610628565b61023f610684565b6040516101909190611a66565b60015461025f906001600160a01b031681565b6040516001600160a01b039091168152602001610190565b6101d461028536600461186b565b6106a1565b6101d4610298366004611701565b610890565b6101d46109a4565b6101d46102b33660046117a2565b6109b8565b6001546001600160a01b031661025f565b6000546001600160a01b031661025f565b6101d46102e8366004611789565b610a7a565b6101d46102fb366004611701565b610b12565b61025f61030e3660046117a2565b60035460009081526005602090815260408083209483529381528382206001600160a01b039384168352905291909120541690565b6101d4610351366004611701565b610b8c565b60006001600160e01b031982167fcb81043b0000000000000000000000000000000000000000000000000000000014806103a057506301ffc9a760e01b6001600160e01b03198316145b92915050565b60606103b26007610c8e565b905090565b60006103a0600783610ca2565b6103cf600783610ca2565b6104205760405162461bcd60e51b815260206004820181905260248201527f677561726469616e5369676e6572206973206e6f74206120677561726469616e60448201526064015b60405180910390fd5b6001600160a01b0382166000908152600960205260409020546104ab5760405162461bcd60e51b815260206004820152602b60248201527f677561726469616e5369676e6572206973206e6f74206120546869726450617260448201527f747920677561726469616e0000000000000000000000000000000000000000006064820152608401610417565b60408051336020820152600091016040516020818303038152906040528051906020012090506104dc818385610cc4565b6105285760405162461bcd60e51b815260206004820152600e60248201527f496e76616c696420636f75706f6e0000000000000000000000000000000000006044820152606401610417565b60035460008181526006602052604090206105439086610db3565b5060009081526005602090815260408083209683529581528582206001600160a01b03909516825293909352505020805473ffffffffffffffffffffffffffffffffffffffff191633179055565b610599610dbf565b6105a4600783610ca2565b156106005760405162461bcd60e51b815260206004820152602660248201527f50726f7669646564206164647265737320697320616c7265616479206120677560448201526530b93234b0b760d11b6064820152608401610417565b61060b600783610e28565b506001600160a01b03909116600090815260096020526040902055565b610630610dbf565b808061067e5760405162461bcd60e51b815260206004820181905260248201527f53656372657420486173682063616e6e6f7420626520627974657333322830296044820152606401610417565b50600455565b60035460009081526006602052604090206060906103b290610e3d565b80806106ef5760405162461bcd60e51b815260206004820181905260248201527f53656372657420486173682063616e6e6f7420626520627974657333322830296044820152606401610417565b6106f98484610e48565b600482815560038054600190810190915554604080517f8da5cb5b00000000000000000000000000000000000000000000000000000000815290516000936001600160a01b0390931692638da5cb5b92808201926020929091829003018186803b15801561076657600080fd5b505afa15801561077a573d6000803e3d6000fd5b505050506040513d601f19601f8201168201806040525081019061079e919061171e565b90506107ca817fc403d48f00000000000000000000000000000000000000000000000000000000610f8e565b61083c5760405162461bcd60e51b815260206004820152603160248201527f4f776e6572206f66206163636f756e7420646f65736e277420737570706f727460448201527f204c53503620496e7465726661636549640000000000000000000000000000006064820152608401610417565b60015460408051617fbf60208201526000928392610877926001600160a01b039092169133910160405160208183030381529060405261108c565b91509150610886838383611336565b5050505050505050565b610898610dbf565b6108a3600782610ca2565b6109155760405162461bcd60e51b815260206004820152602260248201527f50726f76696465642061646472657373206973206e6f7420612067756172646960448201527f616e0000000000000000000000000000000000000000000000000000000000006064820152608401610417565b600254610922600761144a565b116109955760405162461bcd60e51b815260206004820152603460248201527f477561726469616e73206e756d6265722063616e206e6f74206265206c6f776560448201527f72207468616e20746865207468726573686f6c640000000000000000000000006064820152608401610417565b6109a0600782611454565b5050565b6109ac610dbf565b6109b66000610c1c565b565b6109c3600733610ca2565b610a0f5760405162461bcd60e51b815260206004820152601860248201527f43616c6c6572206973206e6f74206120677561726469616e00000000000000006044820152606401610417565b6003546000818152600660205260409020610a2a9084610db3565b506000908152600560209081526040808320948352938152838220338352905291909120805473ffffffffffffffffffffffffffffffffffffffff19166001600160a01b03909216919091179055565b610a82610dbf565b610a8c600761144a565b8111158015610a9b5750600081115b610b0d5760405162461bcd60e51b815260206004820152603460248201527f5468726573686f6c642073686f756c64206265206265747765656e203120616e60448201527f642074686520677561726469616e73436f756e740000000000000000000000006064820152608401610417565b600255565b610b1a610dbf565b610b25600782610ca2565b15610b815760405162461bcd60e51b815260206004820152602660248201527f50726f7669646564206164647265737320697320616c7265616479206120677560448201526530b93234b0b760d11b6064820152608401610417565b6109a0600782610e28565b610b94610dbf565b6001600160a01b038116610c105760405162461bcd60e51b815260206004820152602660248201527f4f776e61626c653a206e6577206f776e657220697320746865207a65726f206160448201527f64647265737300000000000000000000000000000000000000000000000000006064820152608401610417565b610c1981610c1c565b50565b6000546001600160a01b03828116911614610c1957600080546001600160a01b0383811673ffffffffffffffffffffffffffffffffffffffff19831681178455604051919092169283917f8be0079c531659141344cd1fd0a4f28419497f9722a3daafe3b4186f6b6457e09190a35050565b60606000610c9b83611469565b9392505050565b6001600160a01b03811660009081526001830160205260408120541515610c9b565b60008060018585604001518660000151876020015160405160008152602001604052604051610d0f949392919093845260ff9290921660208401526040830152606082015260800190565b6020604051602081039080840390855afa158015610d31573d6000803e3d6000fd5b5050604051601f1901519150506001600160a01b038116610d945760405162461bcd60e51b815260206004820152601860248201527f45434453413a20696e76616c6964207369676e617475726500000000000000006044820152606401610417565b826001600160a01b0316816001600160a01b0316149150509392505050565b6000610c9b83836114c5565b33610dd26000546001600160a01b031690565b6001600160a01b0316146109b65760405162461bcd60e51b815260206004820181905260248201527f4f776e61626c653a2063616c6c6572206973206e6f7420746865206f776e65726044820152606401610417565b6000610c9b836001600160a01b0384166114c5565b60606103a082611469565b600354600080610e58600761144a565b905060005b81811015610ebd57600084815260056020908152604080832089845290915281203391610e8b600785611514565b6001600160a01b039081168252602082019290925260400160002054161415610eb5576001909201915b600101610e5d565b50600254821015610f105760405162461bcd60e51b815260206004820152601d60248201527f596f75206469646e7420726561636820746865207468726573686f6c640000006044820152606401610417565b60045484604051602001610f2491906119fd565b6040516020818303038152906040528051906020012014610f875760405162461bcd60e51b815260206004820152600c60248201527f57726f6e672073656372657400000000000000000000000000000000000000006044820152606401610417565b5050505050565b604080516001600160e01b0319831660248083019190915282518083039091018152604490910182526020810180517bffffffffffffffffffffffffffffffffffffffffffffffffffffffff166301ffc9a760e01b179052905160009190829081906001600160a01b038716906175309061100a9086906119fd565b6000604051808303818686fa925050503d8060008114611046576040519150601f19603f3d011682016040523d82523d6000602084013e61104b565b606091505b509150915060208151101561106657600093505050506103a0565b8180156110825750808060200190518101906110829190611767565b9695505050505050565b604080516003808252608082019092526060918291906020820183803683370190505060408051600380825260808201909252919350816020015b60608152602001906001900390816110c7579050506040517f54f6127f0000000000000000000000000000000000000000000000000000000081527fdf30dba06db6a30e65354d9a64c609861f089545ca58c6b4dbe31a5f338cb0e360048201529091506000906001600160a01b038716906354f6127f9060240160006040518083038186803b15801561115a57600080fd5b505afa15801561116e573d6000803e3d6000fd5b505050506040513d6000823e601f3d908101601f191682016040526111969190810190611928565b61119f90611b86565b905060006111ae826001611b57565b90507fdf30dba06db6a30e65354d9a64c609861f089545ca58c6b4dbe31a5f338cb0e360001b846000815181106111e7576111e7611c09565b6020026020010181815250508060405160200161120691815260200190565b6040516020818303038152906040528360008151811061122857611228611c09565b602090810291909101015261125d7fdf30dba06db6a30e65354d9a64c609861f089545ca58c6b4dbe31a5f338cb0e383611520565b8460018151811061127057611270611c09565b602002602001018181525050856040516020016112a5919060609190911b6bffffffffffffffffffffffff1916815260140190565b604051602081830303815290604052836001815181106112c7576112c7611c09565b60200260200101819052506112ee6b4b80742de2bf82acb363000060a01b8760601b61158d565b8460028151811061130157611301611c09565b602002602001018181525050848360028151811061132157611321611c09565b60200260200101819052505050935093915050565b60606000838360405160240161134d929190611a79565b60408051601f198184030181529181526020820180517bffffffffffffffffffffffffffffffffffffffffffffffffffffffff167f14a6e29300000000000000000000000000000000000000000000000000000000179052517f09c5eabe0000000000000000000000000000000000000000000000000000000081529091506001600160a01b038616906309c5eabe906113eb908490600401611aeb565b600060405180830381600087803b15801561140557600080fd5b505af1158015611419573d6000803e3d6000fd5b505050506040513d6000823e601f3d908101601f191682016040526114419190810190611928565b95945050505050565b60006103a0825490565b6000610c9b836001600160a01b0384166115e4565b6060816000018054806020026020016040519081016040528092919081815260200182805480156114b957602002820191906000526020600020905b8154815260200190600101908083116114a5575b50505050509050919050565b600081815260018301602052604081205461150c575081546001818101845560008481526020808220909301849055845484825282860190935260409020919091556103a0565b5060006103a0565b6000610c9b83836116d7565b60008061157a848460801b604080517fffffffffffffffffffffffffffffffff0000000000000000000000000000000080851660208301528316603082015260609101604051602081830303815290604052905092915050565b905061158581611b86565b949350505050565b6040805173ffffffffffffffffffffffffffffffffffffffff19841660208201526bffffffffffffffffffffffff198316602c82015260009182910160405160208183030381529060405290508061158590611b86565b600081815260018301602052604081205480156116cd576000611608600183611b6f565b855490915060009061161c90600190611b6f565b905081811461168157600086600001828154811061163c5761163c611c09565b906000526020600020015490508087600001848154811061165f5761165f611c09565b6000918252602080832090910192909255918252600188019052604090208390555b855486908061169257611692611bf3565b6001900381819060005260206000200160009055905585600101600086815260200190815260200160002060009055600193505050506103a0565b60009150506103a0565b60008260000182815481106116ee576116ee611c09565b9060005260206000200154905092915050565b60006020828403121561171357600080fd5b8135610c9b81611c35565b60006020828403121561173057600080fd5b8151610c9b81611c35565b6000806040838503121561174e57600080fd5b823561175981611c35565b946020939093013593505050565b60006020828403121561177957600080fd5b81518015158114610c9b57600080fd5b60006020828403121561179b57600080fd5b5035919050565b600080604083850312156117b557600080fd5b8235915060208301356117c781611c35565b809150509250929050565b600080600083850360a08112156117e857600080fd5b8435935060208501356117fa81611c35565b92506060603f198201121561180e57600080fd5b506040516060810181811067ffffffffffffffff8211171561183257611832611c1f565b6040908152850135815260608501356020820152608085013560ff8116811461185a57600080fd5b604082015292959194509192509050565b60008060006060848603121561188057600080fd5b83359250602084013567ffffffffffffffff81111561189e57600080fd5b8401601f810186136118af57600080fd5b80356118c26118bd82611b2f565b611afe565b8181528760208385010111156118d757600080fd5b81602084016020830137600060208383010152809450505050604084013590509250925092565b60006020828403121561191057600080fd5b81356001600160e01b031981168114610c9b57600080fd5b60006020828403121561193a57600080fd5b815167ffffffffffffffff81111561195157600080fd5b8201601f8101841361196257600080fd5b80516119706118bd82611b2f565b81815285602083850101111561198557600080fd5b611441826020830160208601611bad565b600081518084526020808501945080840160005b838110156119c6578151875295820195908201906001016119aa565b509495945050505050565b600081518084526119e9816020860160208601611bad565b601f01601f19169290920160200192915050565b60008251611a0f818460208701611bad565b9190910192915050565b6020808252825182820181905260009190848201906040850190845b81811015611a5a5783516001600160a01b031683529284019291840191600101611a35565b50909695505050505050565b602081526000610c9b6020830184611996565b604081526000611a8c6040830185611996565b6020838203818501528185518084528284019150828160051b85010183880160005b83811015611adc57601f19878403018552611aca8383516119d1565b94860194925090850190600101611aae565b50909998505050505050505050565b602081526000610c9b60208301846119d1565b604051601f8201601f1916810167ffffffffffffffff81118282101715611b2757611b27611c1f565b604052919050565b600067ffffffffffffffff821115611b4957611b49611c1f565b50601f01601f191660200190565b60008219821115611b6a57611b6a611bdd565b500190565b600082821015611b8157611b81611bdd565b500390565b80516020808301519190811015611ba7576000198160200360031b1b821691505b50919050565b60005b83811015611bc8578181015183820152602001611bb0565b83811115611bd7576000848401525b50505050565b634e487b7160e01b600052601160045260246000fd5b634e487b7160e01b600052603160045260246000fd5b634e487b7160e01b600052603260045260246000fd5b634e487b7160e01b600052604160045260246000fd5b6001600160a01b0381168114610c1957600080fdfea2646970667358221220725c943f2390218c98aed60e41a6c69a1fe1cab25187d9c500534b12b048d5f564736f6c63430008070033",
  "linkReferences": {},
  "deployedLinkReferences": {}
}